{
  "_format": "hh-sol-artifact-1",
  "contractName": "Channel",
  "sourceName": "contracts/Channel.sol",
  "abi": [
    {
      "inputs": [
        {
          "internalType": "address payable",
          "name": "_otherOwner",
          "type": "address"
        },
        {
          "internalType": "uint256",
          "name": "_appealPeriodLen",
          "type": "uint256"
        }
      ],
      "stateMutability": "payable",
      "type": "constructor"
    },
    {
      "inputs": [
        {
          "internalType": "address",
          "name": "contract_address",
          "type": "address"
        },
        {
          "internalType": "uint256",
          "name": "_balance1",
          "type": "uint256"
        },
        {
          "internalType": "uint256",
          "name": "_balance2",
          "type": "uint256"
        },
        {
          "internalType": "uint256",
          "name": "serialNum",
          "type": "uint256"
        },
        {
          "internalType": "uint8",
          "name": "v",
          "type": "uint8"
        },
        {
          "internalType": "bytes32",
          "name": "r",
          "type": "bytes32"
        },
        {
          "internalType": "bytes32",
          "name": "s",
          "type": "bytes32"
        },
        {
          "internalType": "address",
          "name": "signerPubKey",
          "type": "address"
        }
      ],
      "name": "_verifySig",
      "outputs": [
        {
          "internalType": "bool",
          "name": "",
          "type": "bool"
        }
      ],
      "stateMutability": "pure",
      "type": "function"
    },
    {
      "inputs": [
        {
          "internalType": "uint256",
          "name": "_balance1",
          "type": "uint256"
        },
        {
          "internalType": "uint256",
          "name": "_balance2",
          "type": "uint256"
        },
        {
          "internalType": "uint256",
          "name": "serialNum",
          "type": "uint256"
        },
        {
          "internalType": "uint8",
          "name": "v",
          "type": "uint8"
        },
        {
          "internalType": "bytes32",
          "name": "r",
          "type": "bytes32"
        },
        {
          "internalType": "bytes32",
          "name": "s",
          "type": "bytes32"
        }
      ],
      "name": "appealClosure",
      "outputs": [],
      "stateMutability": "nonpayable",
      "type": "function"
    },
    {
      "inputs": [],
      "name": "appeal_period_len",
      "outputs": [
        {
          "internalType": "uint256",
          "name": "",
          "type": "uint256"
        }
      ],
      "stateMutability": "view",
      "type": "function"
    },
    {
      "inputs": [],
      "name": "balance1",
      "outputs": [
        {
          "internalType": "uint256",
          "name": "",
          "type": "uint256"
        }
      ],
      "stateMutability": "view",
      "type": "function"
    },
    {
      "inputs": [],
      "name": "balance2",
      "outputs": [
        {
          "internalType": "uint256",
          "name": "",
          "type": "uint256"
        }
      ],
      "stateMutability": "view",
      "type": "function"
    },
    {
      "inputs": [],
      "name": "close_time",
      "outputs": [
        {
          "internalType": "uint256",
          "name": "",
          "type": "uint256"
        }
      ],
      "stateMutability": "view",
      "type": "function"
    },
    {
      "inputs": [],
      "name": "first_owner",
      "outputs": [
        {
          "internalType": "address payable",
          "name": "",
          "type": "address"
        }
      ],
      "stateMutability": "view",
      "type": "function"
    },
    {
      "inputs": [],
      "name": "getAppealPeriodLen",
      "outputs": [
        {
          "internalType": "uint256",
          "name": "",
          "type": "uint256"
        }
      ],
      "stateMutability": "view",
      "type": "function"
    },
    {
      "inputs": [],
      "name": "getBalance",
      "outputs": [
        {
          "internalType": "uint256",
          "name": "",
          "type": "uint256"
        }
      ],
      "stateMutability": "view",
      "type": "function"
    },
    {
      "inputs": [],
      "name": "getChannelState",
      "outputs": [
        {
          "internalType": "enum ChannelState",
          "name": "",
          "type": "uint8"
        }
      ],
      "stateMutability": "view",
      "type": "function"
    },
    {
      "inputs": [],
      "name": "getFirstOwner",
      "outputs": [
        {
          "internalType": "address",
          "name": "",
          "type": "address"
        }
      ],
      "stateMutability": "view",
      "type": "function"
    },
    {
      "inputs": [],
      "name": "getOtherOwner",
      "outputs": [
        {
          "internalType": "address",
          "name": "",
          "type": "address"
        }
      ],
      "stateMutability": "view",
      "type": "function"
    },
    {
      "inputs": [],
      "name": "getSerialNum",
      "outputs": [
        {
          "internalType": "uint256",
          "name": "",
          "type": "uint256"
        }
      ],
      "stateMutability": "view",
      "type": "function"
    },
    {
      "inputs": [],
      "name": "got_close_req",
      "outputs": [
        {
          "internalType": "bool",
          "name": "",
          "type": "bool"
        }
      ],
      "stateMutability": "view",
      "type": "function"
    },
    {
      "inputs": [
        {
          "internalType": "uint256",
          "name": "_balance1",
          "type": "uint256"
        },
        {
          "internalType": "uint256",
          "name": "_balance2",
          "type": "uint256"
        },
        {
          "internalType": "uint256",
          "name": "serialNum",
          "type": "uint256"
        },
        {
          "internalType": "uint8",
          "name": "v",
          "type": "uint8"
        },
        {
          "internalType": "bytes32",
          "name": "r",
          "type": "bytes32"
        },
        {
          "internalType": "bytes32",
          "name": "s",
          "type": "bytes32"
        }
      ],
      "name": "oneSidedClose",
      "outputs": [],
      "stateMutability": "nonpayable",
      "type": "function"
    },
    {
      "inputs": [],
      "name": "other_owner",
      "outputs": [
        {
          "internalType": "address payable",
          "name": "",
          "type": "address"
        }
      ],
      "stateMutability": "view",
      "type": "function"
    },
    {
      "inputs": [],
      "name": "serial_num",
      "outputs": [
        {
          "internalType": "uint256",
          "name": "",
          "type": "uint256"
        }
      ],
      "stateMutability": "view",
      "type": "function"
    },
    {
      "inputs": [
        {
          "internalType": "address payable",
          "name": "destAddress",
          "type": "address"
        }
      ],
      "name": "withdrawFunds",
      "outputs": [],
      "stateMutability": "nonpayable",
      "type": "function"
    }
  ],
  "bytecode": "0x60806040526040516200213938038062002139833981810160405281019062000029919062000190565b336000806101000a81548173ffffffffffffffffffffffffffffffffffffffff021916908373ffffffffffffffffffffffffffffffffffffffff16021790555081600160006101000a81548173ffffffffffffffffffffffffffffffffffffffff021916908373ffffffffffffffffffffffffffffffffffffffff1602179055508060028190555034600381905550600060048190555060006006819055506000600760006101000a81548160ff0219169083151502179055505050620001d7565b600080fd5b600073ffffffffffffffffffffffffffffffffffffffff82169050919050565b60006200011d82620000f0565b9050919050565b6200012f8162000110565b81146200013b57600080fd5b50565b6000815190506200014f8162000124565b92915050565b6000819050919050565b6200016a8162000155565b81146200017657600080fd5b50565b6000815190506200018a816200015f565b92915050565b60008060408385031215620001aa57620001a9620000eb565b5b6000620001ba858286016200013e565b9250506020620001cd8582860162000179565b9150509250929050565b611f5280620001e76000396000f3fe608060405234801561001057600080fd5b50600436106101165760003560e01c806368742da6116100a2578063c45c4f5811610071578063c45c4f58146102ad578063cebf1cd3146102cb578063cff3fc9d146102e9578063d1178a9414610307578063ed57a7f91461032557610116565b806368742da6146102255780637631dd6c146102415780639d7b51ff1461025f578063c39492d61461028f57610116565b806340441eec116100e957806340441eec1461018f5780634cbb6466146101ad578063525e09a1146101cb57806361b2dd21146101e95780636377ebca1461020757610116565b80630b39657f1461011b57806312065fe014610137578063169a54e21461015557806324ed685d14610171575b600080fd5b61013560048036038101906101309190611514565b610343565b005b61013f610767565b60405161014c91906115b0565b60405180910390f35b61016f600480360381019061016a9190611514565b61098a565b005b610179610de2565b60405161018691906115b0565b60405180910390f35b610197610de8565b6040516101a491906115b0565b60405180910390f35b6101b5610dee565b6040516101c291906115b0565b60405180910390f35b6101d3610df8565b6040516101e0919061160c565b60405180910390f35b6101f1610e22565b6040516101fe9190611648565b60405180910390f35b61020f610e46565b60405161021c91906115b0565b60405180910390f35b61023f600480360381019061023a919061168f565b610e4c565b005b6102496112bc565b60405161025691906116d7565b60405180910390f35b6102796004803603810190610274919061171e565b6112cf565b60405161028691906116d7565b60405180910390f35b6102976113b9565b6040516102a491906115b0565b60405180910390f35b6102b56113c3565b6040516102c291906115b0565b60405180910390f35b6102d36113c9565b6040516102e0919061184b565b60405180910390f35b6102f1611415565b6040516102fe919061160c565b60405180910390f35b61030f61143e565b60405161031c9190611648565b60405180910390f35b61032d611464565b60405161033a91906115b0565b60405180910390f35b60008054906101000a900473ffffffffffffffffffffffffffffffffffffffff1673ffffffffffffffffffffffffffffffffffffffff163373ffffffffffffffffffffffffffffffffffffffff1614806103ea5750600160009054906101000a900473ffffffffffffffffffffffffffffffffffffffff1673ffffffffffffffffffffffffffffffffffffffff163373ffffffffffffffffffffffffffffffffffffffff16145b610429576040517f08c379a0000000000000000000000000000000000000000000000000000000008152600401610420906118c3565b60405180910390fd5b6001600281111561043d5761043c6117d4565b5b3073ffffffffffffffffffffffffffffffffffffffff1663cebf1cd36040518163ffffffff1660e01b8152600401602060405180830381865afa158015610488573d6000803e3d6000fd5b505050506040513d601f19601f820116820180604052508101906104ac9190611908565b60028111156104be576104bd6117d4565b5b146104fe576040517f08c379a00000000000000000000000000000000000000000000000000000000081526004016104f5906119a7565b60405180910390fd5b6005548411610542576040517f08c379a000000000000000000000000000000000000000000000000000000000815260040161053990611a13565b60405180910390fd5b60008054906101000a900473ffffffffffffffffffffffffffffffffffffffff1673ffffffffffffffffffffffffffffffffffffffff163373ffffffffffffffffffffffffffffffffffffffff160361060b576105c730878787878787600160009054906101000a900473ffffffffffffffffffffffffffffffffffffffff166112cf565b610606576040517f08c379a00000000000000000000000000000000000000000000000000000000081526004016105fd90611a7f565b60405180910390fd5b61067b565b61063b3087878787878760008054906101000a900473ffffffffffffffffffffffffffffffffffffffff166112cf565b61067a576040517f08c379a000000000000000000000000000000000000000000000000000000000815260040161067190611a7f565b60405180910390fd5b5b60045460035461068b9190611ace565b85876106979190611ace565b146106d7576040517f08c379a00000000000000000000000000000000000000000000000000000000081526004016106ce90611b4e565b60405180910390fd5b600086101580156106e9575060008510155b610728576040517f08c379a000000000000000000000000000000000000000000000000000000000815260040161071f90611b4e565b60405180910390fd5b856003819055508460048190555083600581905550426006819055506001600760006101000a81548160ff021916908315150217905550505050505050565b60008060009054906101000a900473ffffffffffffffffffffffffffffffffffffffff1673ffffffffffffffffffffffffffffffffffffffff163373ffffffffffffffffffffffffffffffffffffffff1614806108115750600160009054906101000a900473ffffffffffffffffffffffffffffffffffffffff1673ffffffffffffffffffffffffffffffffffffffff163373ffffffffffffffffffffffffffffffffffffffff16145b610850576040517f08c379a0000000000000000000000000000000000000000000000000000000008152600401610847906118c3565b60405180910390fd5b600280811115610863576108626117d4565b5b3073ffffffffffffffffffffffffffffffffffffffff1663cebf1cd36040518163ffffffff1660e01b8152600401602060405180830381865afa1580156108ae573d6000803e3d6000fd5b505050506040513d601f19601f820116820180604052508101906108d29190611908565b60028111156108e4576108e36117d4565b5b14610924576040517f08c379a000000000000000000000000000000000000000000000000000000000815260040161091b90611bba565b60405180910390fd5b60008054906101000a900473ffffffffffffffffffffffffffffffffffffffff1673ffffffffffffffffffffffffffffffffffffffff163373ffffffffffffffffffffffffffffffffffffffff1603610981576003549050610987565b60045490505b90565b60008054906101000a900473ffffffffffffffffffffffffffffffffffffffff1673ffffffffffffffffffffffffffffffffffffffff163373ffffffffffffffffffffffffffffffffffffffff161480610a315750600160009054906101000a900473ffffffffffffffffffffffffffffffffffffffff1673ffffffffffffffffffffffffffffffffffffffff163373ffffffffffffffffffffffffffffffffffffffff16145b610a70576040517f08c379a0000000000000000000000000000000000000000000000000000000008152600401610a67906118c3565b60405180910390fd5b60006002811115610a8457610a836117d4565b5b3073ffffffffffffffffffffffffffffffffffffffff1663cebf1cd36040518163ffffffff1660e01b8152600401602060405180830381865afa158015610acf573d6000803e3d6000fd5b505050506040513d601f19601f82011682018060405250810190610af39190611908565b6002811115610b0557610b046117d4565b5b14610b45576040517f08c379a0000000000000000000000000000000000000000000000000000000008152600401610b3c90611c26565b60405180910390fd5b6000841015610b89576040517f08c379a0000000000000000000000000000000000000000000000000000000008152600401610b8090611a13565b60405180910390fd5b60008403610bbc57600454600354610ba19190611ace565b60038190555060006004819055506000600581905550610db8565b60008054906101000a900473ffffffffffffffffffffffffffffffffffffffff1673ffffffffffffffffffffffffffffffffffffffff163373ffffffffffffffffffffffffffffffffffffffff1603610c8557610c4130878787878787600160009054906101000a900473ffffffffffffffffffffffffffffffffffffffff166112cf565b610c80576040517f08c379a0000000000000000000000000000000000000000000000000000000008152600401610c7790611a7f565b60405180910390fd5b610cf5565b610cb53087878787878760008054906101000a900473ffffffffffffffffffffffffffffffffffffffff166112cf565b610cf4576040517f08c379a0000000000000000000000000000000000000000000000000000000008152600401610ceb90611a7f565b60405180910390fd5b5b600454600354610d059190611ace565b8587610d119190611ace565b14610d51576040517f08c379a0000000000000000000000000000000000000000000000000000000008152600401610d4890611b4e565b60405180910390fd5b60008610158015610d63575060008510155b610da2576040517f08c379a0000000000000000000000000000000000000000000000000000000008152600401610d9990611b4e565b60405180910390fd5b8560038190555084600481905550836005819055505b426006819055506001600760006101000a81548160ff021916908315150217905550505050505050565b60025481565b60045481565b6000600554905090565b6000600160009054906101000a900473ffffffffffffffffffffffffffffffffffffffff16905090565b60008054906101000a900473ffffffffffffffffffffffffffffffffffffffff1681565b60065481565b60008054906101000a900473ffffffffffffffffffffffffffffffffffffffff1673ffffffffffffffffffffffffffffffffffffffff163373ffffffffffffffffffffffffffffffffffffffff161480610ef35750600160009054906101000a900473ffffffffffffffffffffffffffffffffffffffff1673ffffffffffffffffffffffffffffffffffffffff163373ffffffffffffffffffffffffffffffffffffffff16145b610f32576040517f08c379a0000000000000000000000000000000000000000000000000000000008152600401610f29906118c3565b60405180910390fd5b600280811115610f4557610f446117d4565b5b3073ffffffffffffffffffffffffffffffffffffffff1663cebf1cd36040518163ffffffff1660e01b8152600401602060405180830381865afa158015610f90573d6000803e3d6000fd5b505050506040513d601f19601f82011682018060405250810190610fb49190611908565b6002811115610fc657610fc56117d4565b5b14611006576040517f08c379a0000000000000000000000000000000000000000000000000000000008152600401610ffd90611bba565b60405180910390fd5b60008054906101000a900473ffffffffffffffffffffffffffffffffffffffff1673ffffffffffffffffffffffffffffffffffffffff163373ffffffffffffffffffffffffffffffffffffffff16036111605760006003541161109e576040517f08c379a000000000000000000000000000000000000000000000000000000000815260040161109590611c92565b60405180910390fd5b60006003549050600060038190555060008273ffffffffffffffffffffffffffffffffffffffff16826040516110d390611ce3565b60006040518083038185875af1925050503d8060008114611110576040519150601f19603f3d011682016040523d82523d6000602084013e611115565b606091505b5050905080611159576040517f08c379a000000000000000000000000000000000000000000000000000000000815260040161115090611d44565b60405180910390fd5b50506112b9565b600160009054906101000a900473ffffffffffffffffffffffffffffffffffffffff1673ffffffffffffffffffffffffffffffffffffffff163373ffffffffffffffffffffffffffffffffffffffff16036112b8576000600454116111fa576040517f08c379a00000000000000000000000000000000000000000000000000000000081526004016111f190611c92565b60405180910390fd5b60006004549050600060048190555060008273ffffffffffffffffffffffffffffffffffffffff168260405161122f90611ce3565b60006040518083038185875af1925050503d806000811461126c576040519150601f19603f3d011682016040523d82523d6000602084013e611271565b606091505b50509050806112b5576040517f08c379a00000000000000000000000000000000000000000000000000000000081526004016112ac90611d44565b60405180910390fd5b50505b5b50565b600760009054906101000a900460ff1681565b600080898989896040516020016112e99493929190611dcd565b6040516020818303038152906040528051906020012090506000816040516020016113149190611e93565b6040516020818303038152906040528051906020012090508373ffffffffffffffffffffffffffffffffffffffff16600182898989604051600081526020016040526040516113669493929190611ed7565b6020604051602081039080840390855afa158015611388573d6000803e3d6000fd5b5050506020604051035173ffffffffffffffffffffffffffffffffffffffff16149250505098975050505050505050565b6000600254905090565b60035481565b6000801515600760009054906101000a900460ff161515036113ee5760009050611412565b6006546002546113fe9190611ace565b421161140d5760019050611412565b600290505b90565b60008060009054906101000a900473ffffffffffffffffffffffffffffffffffffffff16905090565b600160009054906101000a900473ffffffffffffffffffffffffffffffffffffffff1681565b60055481565b600080fd5b6000819050919050565b6114828161146f565b811461148d57600080fd5b50565b60008135905061149f81611479565b92915050565b600060ff82169050919050565b6114bb816114a5565b81146114c657600080fd5b50565b6000813590506114d8816114b2565b92915050565b6000819050919050565b6114f1816114de565b81146114fc57600080fd5b50565b60008135905061150e816114e8565b92915050565b60008060008060008060c087890312156115315761153061146a565b5b600061153f89828a01611490565b965050602061155089828a01611490565b955050604061156189828a01611490565b945050606061157289828a016114c9565b935050608061158389828a016114ff565b92505060a061159489828a016114ff565b9150509295509295509295565b6115aa8161146f565b82525050565b60006020820190506115c560008301846115a1565b92915050565b600073ffffffffffffffffffffffffffffffffffffffff82169050919050565b60006115f6826115cb565b9050919050565b611606816115eb565b82525050565b600060208201905061162160008301846115fd565b92915050565b6000611632826115cb565b9050919050565b61164281611627565b82525050565b600060208201905061165d6000830184611639565b92915050565b61166c81611627565b811461167757600080fd5b50565b60008135905061168981611663565b92915050565b6000602082840312156116a5576116a461146a565b5b60006116b38482850161167a565b91505092915050565b60008115159050919050565b6116d1816116bc565b82525050565b60006020820190506116ec60008301846116c8565b92915050565b6116fb816115eb565b811461170657600080fd5b50565b600081359050611718816116f2565b92915050565b600080600080600080600080610100898b03121561173f5761173e61146a565b5b600061174d8b828c01611709565b985050602061175e8b828c01611490565b975050604061176f8b828c01611490565b96505060606117808b828c01611490565b95505060806117918b828c016114c9565b94505060a06117a28b828c016114ff565b93505060c06117b38b828c016114ff565b92505060e06117c48b828c01611709565b9150509295985092959890939650565b7f4e487b7100000000000000000000000000000000000000000000000000000000600052602160045260246000fd5b60038110611814576118136117d4565b5b50565b600081905061182582611803565b919050565b600061183582611817565b9050919050565b6118458161182a565b82525050565b6000602082019050611860600083018461183c565b92915050565b600082825260208201905092915050565b7f496e76616c696420616464726573730000000000000000000000000000000000600082015250565b60006118ad600f83611866565b91506118b882611877565b602082019050919050565b600060208201905081810360008301526118dc816118a0565b9050919050565b600381106118f057600080fd5b50565b600081519050611902816118e3565b92915050565b60006020828403121561191e5761191d61146a565b5b600061192c848285016118f3565b91505092915050565b7f4368616e6e656c20616c726561647920636c6f736564206f72207374696c6c2060008201527f6f70656e00000000000000000000000000000000000000000000000000000000602082015250565b6000611991602483611866565b915061199c82611935565b604082019050919050565b600060208201905081810360008301526119c081611984565b9050919050565b7f496e76616c69642073657269616c206e756d6265720000000000000000000000600082015250565b60006119fd601583611866565b9150611a08826119c7565b602082019050919050565b60006020820190508181036000830152611a2c816119f0565b9050919050565b7f496e76616c6964207369676e6174757265000000000000000000000000000000600082015250565b6000611a69601183611866565b9150611a7482611a33565b602082019050919050565b60006020820190508181036000830152611a9881611a5c565b9050919050565b7f4e487b7100000000000000000000000000000000000000000000000000000000600052601160045260246000fd5b6000611ad98261146f565b9150611ae48361146f565b9250828201905080821115611afc57611afb611a9f565b5b92915050565b7f496e76616c69642062616c616e63650000000000000000000000000000000000600082015250565b6000611b38600f83611866565b9150611b4382611b02565b602082019050919050565b60006020820190508181036000830152611b6781611b2b565b9050919050565b7f4368616e6e656c2069736e277420636c6f736564207965740000000000000000600082015250565b6000611ba4601883611866565b9150611baf82611b6e565b602082019050919050565b60006020820190508181036000830152611bd381611b97565b9050919050565b7f4368616e6e656c20697320616c726561647920636c6f73656400000000000000600082015250565b6000611c10601983611866565b9150611c1b82611bda565b602082019050919050565b60006020820190508181036000830152611c3f81611c03565b9050919050565b7f4e6f2066756e647320746f207769746864726177000000000000000000000000600082015250565b6000611c7c601483611866565b9150611c8782611c46565b602082019050919050565b60006020820190508181036000830152611cab81611c6f565b9050919050565b600081905092915050565b50565b6000611ccd600083611cb2565b9150611cd882611cbd565b600082019050919050565b6000611cee82611cc0565b9150819050919050565b7f5472616e73666572206661696c65640000000000000000000000000000000000600082015250565b6000611d2e600f83611866565b9150611d3982611cf8565b602082019050919050565b60006020820190508181036000830152611d5d81611d21565b9050919050565b60008160601b9050919050565b6000611d7c82611d64565b9050919050565b6000611d8e82611d71565b9050919050565b611da6611da1826115eb565b611d83565b82525050565b6000819050919050565b611dc7611dc28261146f565b611dac565b82525050565b6000611dd98287611d95565b601482019150611de98286611db6565b602082019150611df98285611db6565b602082019150611e098284611db6565b60208201915081905095945050505050565b600081905092915050565b7f19457468657265756d205369676e6564204d6573736167653a0a333200000000600082015250565b6000611e5c601c83611e1b565b9150611e6782611e26565b601c82019050919050565b6000819050919050565b611e8d611e88826114de565b611e72565b82525050565b6000611e9e82611e4f565b9150611eaa8284611e7c565b60208201915081905092915050565b611ec2816114de565b82525050565b611ed1816114a5565b82525050565b6000608082019050611eec6000830187611eb9565b611ef96020830186611ec8565b611f066040830185611eb9565b611f136060830184611eb9565b9594505050505056fea264697066735822122038279e0481a0dff82ee757b2d52e76334b3196061dbec1bdccd95ea72b1aab2264736f6c63430008130033",
  "linkReferences": {},
  "deployedLinkReferences": {}
}